:060000000C943E000C947C
:1000060000000C9400000C9400000C9400000C946A
:1000160000000C9400000C9400000C9400000C945A
:1000260000000C9400000C9400000C9400000C944A
:1000360000000C9400000C9400000C9400000C943A
:1000460000000C9400000C9400000C9400000C942A
:1000560000000C9400000C9400000C9400000C941A
:1000660000000C9400000C9400000C9400000C940A
:1000760000000C940000F894EE27EFBBF1E0F5BF0A
:10008600E5BFF8E1A895A4B7A77FA4BFF0936000E9
:10009600E09360008DE0A2E0BB27ED938A95E9F737
:1000A60080E090E1A0E0B1E0ED930197E9F7E0E0B0
:1000B600EEBBEFEFEDBFE0E1EEBFC0E0D5E00C94A4
:1000C600640078940000E0E2EAB90000FFCFFFCFB9
:00000001FF
