:0C0000000C9438000C9400000C940000DC
:10000C000C9400000C9400000C9400000C94000064
:10001C000C9400000C9400000C9400000C94000054
:10002C000C9400000C9400000C9400000C94000044
:10003C000C945E000C9400000C9400000C940000D6
:10004C000C9400000C9400000C9400000C94000024
:10005C000C9400000C9400000C9400000C94000014
:10006C000C940000F894EE27EFBBF1E0F5BFE5BF70
:10007C00F8E1A895A4B7A77FA4BFF0936000E09324
:10008C0060008DE0A2E0BB27ED938A95E9F780E054
:10009C0090E1A0E0B1E0ED930197E9F7E0E0EEBB71
:1000AC00EFEFEDBFE0E1EEBFC0E0D5E00C946700F0
:1000BC00EA93379B02C0E0E001C0E0E8E8B9E991BF
:1000CC001895E0E8E7B9E0E0E8B9E1E0E0936F000B
:1000DC00E0E8EFBFE4E0E09381000000FECFFFCF4B
:00000001FF
